{
  "contractName": "CatMap",
  "contractAddress": "0x1dc4c1cefef38a777b15aa20260a54e584b16c48",
  "abi": [
    {
      "constant": true,
      "inputs": [
        {
          "internalType": "uint256",
          "name": "",
          "type": "uint256"
        }
      ],
      "name": "catIdToCoordinate",
      "outputs": [
        {
          "internalType": "bytes",
          "name": "",
          "type": "bytes"
        }
      ],
      "payable": false,
      "stateMutability": "view",
      "type": "function"
    },
    {
      "constant": true,
      "inputs": [
        {
          "internalType": "uint256",
          "name": "",
          "type": "uint256"
        }
      ],
      "name": "catIdToOwner",
      "outputs": [
        {
          "internalType": "address",
          "name": "",
          "type": "address"
        }
      ],
      "payable": false,
      "stateMutability": "view",
      "type": "function"
    },
    {
      "constant": false,
      "inputs": [
        {
          "internalType": "uint256",
          "name": "catId",
          "type": "uint256"
        },
        {
          "internalType": "bytes",
          "name": "coordinate",
          "type": "bytes"
        }
      ],
      "name": "updateCoordinate",
      "outputs": [
        {
          "internalType": "bool",
          "name": "success",
          "type": "bool"
        }
      ],
      "payable": false,
      "stateMutability": "nonpayable",
      "type": "function"
    }
  ],
  "bytecode": "0x608060405234801561001057600080fd5b506108a1806100206000396000f3fe608060405234801561001057600080fd5b50600436106100415760003560e01c80631d92703914610046578063d6fe252214610076578063d9acfd30146100a6575b600080fd5b610060600480360361005b91908101906105f1565b6100d6565b60405161006d91906106b7565b60405180910390f35b610090600480360361008b91908101906105c8565b610303565b60405161009d919061069c565b60405180910390f35b6100c060048036036100bb91908101906105c8565b610336565b6040516100cd91906106d2565b60405180910390f35b60006100e06103e6565b828060200190516100f4919081019061059f565b905060008160006002811061010557fe5b6020020151905060008260016002811061011b57fe5b602002015190507fffffffffffffffffffffffffffffffffffffffffffffffffffffffffca5b1700821215801561015657506335a4e9008213155b61015f57600080fd5b7fffffffffffffffffffffffffffffffffffffffffffffffffffffffff94b62e0081121580156101935750636b49d2008113155b61019c57600080fd5b600080600088815260200190815260200160002060009054906101000a900473ffffffffffffffffffffffffffffffffffffffff169050600073ffffffffffffffffffffffffffffffffffffffff168173ffffffffffffffffffffffffffffffffffffffff16148061023957503373ffffffffffffffffffffffffffffffffffffffff168173ffffffffffffffffffffffffffffffffffffffff16145b61024257600080fd5b600073ffffffffffffffffffffffffffffffffffffffff168173ffffffffffffffffffffffffffffffffffffffff1614156102c9573360008089815260200190815260200160002060006101000a81548173ffffffffffffffffffffffffffffffffffffffff021916908373ffffffffffffffffffffffffffffffffffffffff1602179055505b60009050856001600089815260200190815260200160002090805190602001906102f4929190610408565b50600194505050505092915050565b60006020528060005260406000206000915054906101000a900473ffffffffffffffffffffffffffffffffffffffff1681565b60016020528060005260406000206000915090508054600181600116156101000203166002900480601f0160208091040260200160405190810160405280929190818152602001828054600181600116156101000203166002900480156103de5780601f106103b3576101008083540402835291602001916103de565b820191906000526020600020905b8154815290600101906020018083116103c157829003601f168201915b505050505081565b6040518060400160405280600290602082028038833980820191505090505090565b828054600181600116156101000203166002900490600052602060002090601f016020900481019282601f1061044957805160ff1916838001178555610477565b82800160010185558215610477579182015b8281111561047657825182559160200191906001019061045b565b5b5090506104849190610488565b5090565b6104aa91905b808211156104a657600081600090555060010161048e565b5090565b90565b600082601f8301126104be57600080fd5b60026104d16104cc82610721565b6106f4565b915081838560208402820111156104e757600080fd5b60005b8381101561051757816104fd8882610575565b8452602084019350602083019250506001810190506104ea565b5050505092915050565b600082601f83011261053257600080fd5b813561054561054082610743565b6106f4565b9150808252602083016020830185838301111561056157600080fd5b61056c8382846107dd565b50505092915050565b60008151905061058481610830565b92915050565b60008135905061059981610847565b92915050565b6000604082840312156105b157600080fd5b60006105bf848285016104ad565b91505092915050565b6000602082840312156105da57600080fd5b60006105e88482850161058a565b91505092915050565b6000806040838503121561060457600080fd5b60006106128582860161058a565b925050602083013567ffffffffffffffff81111561062f57600080fd5b61063b85828601610521565b9150509250929050565b61064e8161078b565b82525050565b61065d8161079d565b82525050565b600061066e8261076f565b610678818561077a565b93506106888185602086016107ec565b6106918161081f565b840191505092915050565b60006020820190506106b16000830184610645565b92915050565b60006020820190506106cc6000830184610654565b92915050565b600060208201905081810360008301526106ec8184610663565b905092915050565b6000604051905081810181811067ffffffffffffffff8211171561071757600080fd5b8060405250919050565b600067ffffffffffffffff82111561073857600080fd5b602082029050919050565b600067ffffffffffffffff82111561075a57600080fd5b601f19601f8301169050602081019050919050565b600081519050919050565b600082825260208201905092915050565b6000610796826107b3565b9050919050565b60008115159050919050565b6000819050919050565b600073ffffffffffffffffffffffffffffffffffffffff82169050919050565b6000819050919050565b82818337600083830152505050565b60005b8381101561080a5780820151818401526020810190506107ef565b83811115610819576000848401525b50505050565b6000601f19601f8301169050919050565b610839816107a9565b811461084457600080fd5b50565b610850816107d3565b811461085b57600080fd5b5056fea365627a7a72315820857b793a5cd4c63e38605351120628cb3a8fb8e1a0ed85d62ff6fb3b545cdb6a6c6578706572696d656e74616cf564736f6c63430005100040",
  "source": "pragma solidity ^0.5.2;\npragma experimental ABIEncoderV2;\n\n/** @title Cat map. */\ncontract CatMap {\n    mapping (uint256 => address) public catIdToOwner;\n    mapping (uint256 => bytes) public catIdToCoordinate;\n\n    /** @dev Update the coordinate of a cat.\n      * @param catId Unique ID of the cat, any uint256\n      * @param coordinate An array of integers of size 2, ABI encoded into bytes\n      * @return success If successful, returns true\n      */\n    function updateCoordinate(uint256 catId, bytes memory coordinate) public\n    returns (bool success)\n    {\n        // convert bytes into ints\n        int[2] memory latlon = abi.decode(coordinate, (int[2]));\n        int lat = latlon[0];\n        int lon = latlon[1];\n\n        require(\n            lat >= -900000000 && lat <= 900000000\n        );\n        require(\n            lon >= -1800000000 && lon <= 1800000000\n        );\n\n        // check owner\n        address owner = catIdToOwner[catId];\n        require(\n            owner == address(0) || owner == msg.sender\n        );\n        //save owner if doesn't exist\n        if (owner == address(0)) {\n            catIdToOwner[catId] = msg.sender;\n        }\n        delete owner;\n\n        // update coordinate\n        catIdToCoordinate[catId] = coordinate;\n        return true;\n    }\n\n}\n",
  "sourcePath": "/Users/romain/dev/takehome_romain/contracts/CatMap.sol",
  "compiler": {
    "name": "solc",
    "version": "0.5.16+commit.9c3226ce.Emscripten.clang"
  },
  "schemaVersion": "3.2.0",
  "updatedAt": "2020-06-18T04:09:45.276Z",
  "devdoc": {
    "methods": {
      "updateCoordinate(uint256,bytes)": {
        "details": "Update the coordinate of a cat.",
        "params": {
          "catId": "Unique ID of the cat, any uint256",
          "coordinate": "An array of integers of size 2, ABI encoded into bytes"
        },
        "return": "success If successful, returns true"
      }
    },
    "title": "Cat map. "
  },
  "userdoc": {
    "methods": {}
  }
}